S0150000545033456E7472656761626C652E737265633F
S11300000C9434000C9451000C9451000C94510045
S11300100C9451000C9451000C9451000C94510018
S11300200C9451000C9451000C9451000C94510008
S11300300C9451000C9451000C9451000C945100F8
S11300400C9451000C9451000C94FB000C943C0152
S11300500C9451000C9451000C9451000C945100D8
S11300600C9451000C94510011241FBECFEFD8E022
S1130070DEBFCDBF11E0A0E0B1E0ECE9F6E002C0E4
S113008005900D92A233B107D9F721E0A2E3B1E0C4
S113009001C01D92A933B207E1F70E94DA000C9463
S11300A04C030C94000087B1816087B988B18E7FBE
S11300B088B92FEF89EF90E0215080409040E1F71C
S11300C000C0000088B1816088B925ED2A95F1F758
S11300D0000087B18E7F87B9089585ED8A95F1F781
S11300E00000309913C08FE391E00197F1F700C04D
S11300F0000096B1892F817090FF09C08FE391E0D1
S11301000197F1F700C0000081E0089580E00895B0
S113011080E090E016C0309BFECF20EA2A95F1F7EC
S1130120309B0CC047E050E0491B510921E030E00E
S113013002C0220F331F4A95E2F7822B3099FECF7B
S11301409F5F983040F30895CF92DF92EF92FF9231
S11301500F931F93CF93DF938C01EB010E94530005
S11301600E946D008823E9F00E948800D82E0E9426
S11301708800F82E0E948800E82E0E948800C82E6D
S11301800E9488002F2D30E02D0D311D2E0D311DC4
S11301902C0D311D90E02817390719F4F801D0828D
S11301A0E882DF91CF911F910F91FF90EF90DF9044
S11301B0CF90089587E60E941E020E9428020E94A2
S11301C03A020E94400278940E94C001809100018A
S11301D08823E1F32FEF8BE792E921508040904090
S11301E0E1F700C0000081E0809333010E944C02DB
S11301F00E942E02EBCF1F920F920FB60F92112482
S11302002F933F934F935F936F937F938F939F931A
S1130210AF93BF93EF93FF930E9434020E9449026D
S113022080933401809134018D3029F08091340120
S11302308093350103C08AE08093350180913501B4
S1130240833711F0833539F481E0909100019111E5
S113025080E080930001FF91EF91BF91AF919F9156
S11302608F917F916F915F914F913F912F910F905B
S11302700FBE0F901F9018951F920F920FB60F92FA
S113028011242F933F934F935F936F937F938F9397
S11302909F93AF93BF93EF93FF9380913301882390
S11302A0C9F0E0913201F0E0EF5FFE4F80810E94DF
S11302B04602E0913201EF5FE0933201F0E0EF5F3C
S11302C0FE4F8081811106C01092320110923301D9
S11302D00E943402FF91EF91BF91AF919F918F9152
S11302E07F916F915F914F913F912F910F900FBE2E
S11302F00F901F9018951092B90088E98093B80068
S113030084E08093BC00089584EA8093BC008091CB
S1130310BC008823E4F7089584E98093BC00089521
S11303208093BB0084E88093BC008091BC00882348
S1130330E4F70895811104C084EC8093BC0003C0E9
S113034084E88093BC008091BC008823E4F780910A
S1130350BB000895982F92959F70990F292F220F13
S1130360220F920F8F70890F08950E94AA0190E0C6
S1130370489608950E94AA01811101C081E0089560
S11303800E947B010895CF93DF93CDB7DEB72E97FC
S11303900FB6F894DEBF0FBECDBF0E94840180ED7E
S11303A00E94900180E00E9490010E94840181EDEE
S11303B00E94900180E00E949A010E94AA0188870D
S11303C080E00E949A010E94AA01898780E00E942D
S11303D09A010E94AA018A8780E00E949A0180E023
S11303E00E949A010E94BA018B8780E00E949A01C0
S11303F00E94BA018C8781E00E949A010E94B50193
S11304009E878D870E948C0187E0FE013896DE016D
S1130410119601900D928A95E1F729813A814B81D9
S11304205C816D817E818F8190E02E960FB6F89469
S1130430DEBF0FBECDBFDF91CF9108951092C100F2
S113044096E09093C2001092C5008093C400089572
S1130450E1ECF0E08081886080830895E1ECF0E0D5
S11304608081806280830895E1ECF0E080818F7D5B
S113047080830895E1ECF0E08081806180830895B9
S1130480E1ECF0E080818068808308958093C60069
S113049008958091C6000895CF92DF92FF920F9342
S11304A01F93CF93DF93CDB7DEB727970FB6F8949A
S11304B0DEBF0FBECDBF109237011092380167E343
S11304C071E088E391E00E94A4009091370101E07B
S11304D011E00F2EFDECFF2EF02D9F9D812D112498
S11304E086958695869520E3280FD80116962C9339
S11304F01697880F282F220F220F820F981B905DCA
S113050017969C931797909138019F9D812D1124E4
S113051086958695869520E3280F1E962C931E9724
S1130520880F282F220F220F820F981B905D1F9691
S11305309C930E94C301E22FF32F7E838F835F9DE0
S1130540812D112486958695869590E3980FD80180
S113055058969C935897880F982F990F990F890F45
S1130560581B505D59965C9359976F9D812D1124AA
S113057086958695869590E3980F5B969C935B97FA
S1130580880F982F990F990F890F681B605D5C96EF
S11305906C93CE80DF809601ADECBCEC0E943D03F1
S11305A096958795969587959695879520E3280F38
S11305B0D8015E962C935E979C01220F331F880FFF
S11305C0991F880F991F880F991F820F931F9601F7
S11305D0281B390BC901805D5F968C935F974F9DF3
S11305E0812D112486958695869590E3980F96968D
S11305F09C939697880F982F990F990F890F481BF2
S1130600405D97964C939797FF9D812D1124869575
S11306108695869590E3980F99969C939997880F61
S1130620982F990F990F890FF81BF05D9A96FC93F8
S11306309A97EF9DF12C11249F2D9695969596955A
S113064080E3890F9C968C939C97F92EFF0C8F2D39
S1130650880F880FF80EEF19E05D9D96EC932796AE
S11306600FB6F894DEBF0FBECDBFDF91CF911F91BF
S11306700F91FF90DF90CF900895A29FB001B39F98
S1130680C001A39F700D811D1124911DB29F700D97
S10F0690811D1124911D0895F894FFCFE2
S113069CFF54454D503A2020432048554D3A2020D4
S11306AC252046454348413A20202F20202F202046
S11306BC20484F52412020203A20203A2020200D5F
S10506CC0A001E
S9030000FC
