:100000000C9434000C9451000C9451000C94510049
:100010000C9451000C9451000C9451000C9451001C
:100020000C9451000C9451000C9451000C9451000C
:100030000C9451000C9451000C9451000C945100FC
:100040000C9451000C9451000C9451000C945100EC
:100050000C9451000C9451000C9451000C945100DC
:100060000C9451000C94510011241FBECFEFD8E026
:10007000DEBFCDBF11E0A0E0B1E0E4ECF7E002C0EC
:1000800005900D92A432B107D9F721E0A4E2B1E0C6
:1000900001C01D92A432B207E1F70E943B010C940B
:1000A000E0030C9400008AB184608AB98BB184604B
:1000B0008BB90895CF92DF92EF92FF920F931F9327
:1000C000CF93DF93CDB7DEB72A970FB6F894DEBF94
:1000D0000FBECDBFDC018BB18B7F8BB983E991E182
:1000E0000197F1F700C000008BB184608BB98AB131
:1000F0008B7F8AB920E030E00EC000C02E5F3F4FFA
:100100002D33310544F08AB184608AB98BB18460A3
:100110008BB980E0A1C099B1492F447092FDEDCF19
:1001200020E030E00DC000C02E5F3F4F2536310586
:100130003CF09AB194609AB99BB194609BB98CC021
:1001400099B1892F847092FFEECF80E090E00DC0CE
:1001500000C002968536910544F08AB184608AB960
:100160008BB184608BB9842F77C04A99F1CF00E0BE
:1001700010E02DC09BE09A95F1F700C04A9BFACFA2
:100180004A9B0CC0E7E0F0E0E21BF30B41E050E0DB
:1001900002C0440F551FEA95E2F7842B4A99FECF1F
:1001A0002F5F3F4F03C080E020E030E02830310572
:1001B0002CF3F801EE0FFF1F21E030E02C0F3D1F64
:1001C000E20FF31F90E0918380830F5F1F4F053094
:1001D00011054CF38AB184608AB98BB184608BB904
:1001E0005981EB81FC814D812F813885852F8E0FC0
:1001F000840F820F90E009851A858017910759F5C1
:100200007B016D0100E010E0152F0E2B1F2B60E02D
:1002100070E0742F622B732B80E090E00E945203F9
:1002200020E030E040E251E40E94B1020E9423034A
:10023000F6016083B80180E090E00E94520320E064
:1002400030E040E251E40E94B1020E942303F70132
:10025000608381E001C081E02A960FB6F894DEBF8A
:100260000FBECDBFDF91CF911F910F91FF90EF9007
:10027000DF90CF900895CF93DF93CDB7DEB7299766
:100280000FB6F894DEBF0FBECDBF83E30E944C02D1
:100290000E9456020E945C020E9453000E94F401D8
:1002A00019861886BE01685F7F4FCE0109960E94AD
:1002B0005A008823A9F30E94F70129833A834B83CC
:1002C0005C836D837E838F8380E091E00E946A026D
:1002D00089850E94860286E091E00E946A0289E098
:1002E00091E00E946A0288850E9486028EE091E079
:1002F0000E946A0280E191E00E946A028C810E9461
:10030000860287E191E00E946A028D810E94860246
:1003100087E191E00E946A028E810E94860289E153
:1003200091E00E946A028BE191E00E946A028B8157
:100330000E94860285E191E00E946A028A810E9401
:10034000860285E191E00E946A0289810E9486020C
:1003500081E291E00E946A022FE78AE196E0215053
:1003600080409040E1F700C000009ACF1092B900A1
:1003700088E48093B80084E08093BC00089584EA08
:100380008093BC008091BC008823E4F7089584E941
:100390008093BC0008958093BB0084E88093BC00E8
:1003A0008091BC008823E4F7089584EC8093BC001E
:1003B0008091BC008823E4F78091BB00089584E815
:1003C0008093BC008091BC008823E4F78091BB003F
:1003D0000895982F92959F70990F292F220F220F21
:1003E000920F8F70890F08950E94B6010895CF93E0
:1003F000DF93CDB7DEB72E970FB6F894DEBF0FBEF2
:10040000CDBF0E94BF0180ED0E94CB0180E00E9421
:10041000CB010E94BF0181ED0E94CB010E94D5015A
:100420000E94E90188870E94D5010E94E90189871D
:100430000E94D5010E94E9018A870E94D5010E948D
:10044000E9018B870E94D5010E94E9018C870E94F7
:10045000DF010E94E90190E08851984F9E878D87C7
:100460000E94C70187E0FE013896DE0111960190D7
:100470000D928A95E1F729813A814B815C816D81EA
:100480007E818F8190E02E960FB6F894DEBF0FBE6E
:10049000CDBFDF91CF9108951092C10096E0909367
:1004A000C2001092C5008093C4000895E1ECF0E012
:1004B0008081886080830895E1ECF0E08081806134
:1004C000808308958091C00085FFFCCF08958093BC
:1004D000C6000895EF92FF920F931F93CF937C0174
:1004E000C0E007C00E946202F80180810E9467029A
:1004F000CF5F87010C0F111DF80180818111F2CFB0
:10050000CF911F910F91FF90EF900895CF93DF93BC
:10051000D82F0E94620289E2D89F812D11248295F2
:100520008F70805D0E946702D4560E946202CDECFB
:10053000DC9FC12D1124C695C695C69580E38C0F0E
:100540000E9467020E946202CC0F8C2F880F880FD6
:10055000C80F8D2F8C1B805D0E946702DF91CF91A9
:1005600008950E94C5020C94A6030E949F0358F0B0
:100570000E94980340F029F45F3F29F00C948F0308
:1005800051110C94DA030C9495030E94B70368F39D
:100590009923B1F3552391F3951B550BBB27AA273C
:1005A00062177307840738F09F5F5F4F220F331F76
:1005B000441FAA1FA9F335D00E2E3AF0E0E832D03E
:1005C00091505040E695001CCAF72BD0FE2F29D041
:1005D000660F771F881FBB1F261737074807AB0713
:1005E000B0E809F0BB0B802DBF01FF2793585F4F88
:1005F0003AF09E3F510578F00C948F030C94DA0387
:100600005F3FE4F3983ED4F3869577956795B79569
:10061000F7959F5FC9F7880F911D9695879597F974
:100620000895E1E0660F771F881FBB1F62177307ED
:100630008407BA0720F0621B730B840BBA0BEE1F02
:1006400088F7E09508950E94BF0388F09F5798F0BF
:10065000B92F9927B751B0F0E1F0660F771F881FC7
:10066000991F1AF0BA95C9F714C0B13091F00E94E1
:10067000D903B1E008950C94D903672F782F882708
:10068000B85F39F0B93FCCF3869577956795B39508
:10069000D9F73EF490958095709561957F4F8F4F77
:1006A0009F4F0895E89409C097FB3EF4909580957C
:1006B000709561957F4F8F4F9F4F9923A9F0F92F28
:1006C00096E9BB279395F695879577956795B795A6
:1006D000F111F8CFFAF4BB0F11F460FF1BC06F5F8C
:1006E0007F4F8F4F9F4F16C0882311F096E911C09E
:1006F000772321F09EE8872F762F05C0662371F0BF
:1007000096E8862F70E060E02AF09A95660F771FD2
:10071000881FDAF7880F9695879597F9089597F9C6
:100720009F6780E870E060E008959FEF80EC089597
:1007300000240A94161617061806090608950024C0
:100740000A9412161306140605060895092E03943A
:10075000000C11F4882352F0BB0F40F4BF2B11F4AE
:1007600060FF04C06F5F7F4F8F4F9F4F089557FD0D
:100770009058440F551F59F05F3F71F04795880F0F
:1007800097FB991F61F09F3F79F0879508951216A6
:1007900013061406551FF2CF4695F1DF08C0161652
:1007A00017061806991FF1CF869571056105089403
:1007B0000895E894BB2766277727CB0197F908951A
:0407C000F894FFCFDB
:1007C40054454D503A00B0430048554D3A00250079
:1007D40046454348413A002F002000484F52413AD1
:0407E400000D0A00FA
:00000001FF
